:100000000C9463000C948B000C948B000C948B006C
:100010000C948B000C948B000C948B000C94DF05DB
:100020000C948B000C948B000C948B000C948B0024
:100030000C948B000C948B000C948B000C948B0014
:100040000C9495050C948B000C9461060C943B0663
:100050000C948B000C948B000C948B000C948B00F4
:100060000C9493060C948B000000000023002600E3
:1000700029000200000000240027002A00000000E0
:1000800000250028002B00040404040404040402D6
:100090000202020202030303030303010204081025
:1000A00020408001020408102001020408102000F2
:1000B0000000080002010000030407000000000027
:1000C00000000000F70711241FBECFEFD8E0DEBF0D
:1000D000CDBF11E0A0E0B1E0ECE7FAE102C005908D
:1000E0000D92A639B107D9F723E0A6E9B1E001C026
:1000F0001D92A032B207E1F710E0C3E6D0E004C0E1
:100100002197FE010E94360DC236D107C9F70E9421
:1001100040080C943C0D0C94000090E0FC01E1556B
:10012000FF4F2491FC01E556FF4F3491FC01E95744
:10013000FF4FE491EE23C9F0222339F0233001F17F
:10014000A8F4213019F1223029F1F0E0EE0FFF1F61
:10015000E358FF4FA591B4918FB7F894EC916111DA
:1001600026C030953E233C938FBF08952730A9F0D9
:100170002830C9F0243049F7809180008F7D03C07A
:10018000809180008F7780938000DFCF84B58F7758
:1001900084BDDBCF84B58F7DFBCF8091B0008F779E
:1001A0008093B000D2CF8091B0008F7DF9CF3E2BED
:1001B000DACFCF93DF9390E0FC01E556FF4F249117
:1001C00089579F4FFC0184918823D1F090E0880FDC
:1001D000991FFC01ED58FF4FA591B491FC01E35824
:1001E000FF4FC591D49161110EC09FB7F8948C91C7
:1001F000E22FE0958E238C932881E223E8839FBF32
:10020000DF91CF9108958FB7F894EC91E22BEC93A6
:100210008FBFF6CF3FB7F894809166029091670246
:10022000A0916802B091690226B5A89B05C02F3F36
:1002300019F00196A11DB11D3FBFBA2FA92F982F0C
:100240008827BC01CD01620F711D811D911D42E007
:10025000660F771F881F991F4A95D1F708958F92CF
:100260009F92AF92BF92CF92DF92EF92FF926B017B
:100270007C010E940A014B015C01C114D104E1041C
:10028000F104B9F00E940A01681979098A099B09E9
:10029000683E73408105910580F321E0C21AD108C0
:1002A000E108F10888EE880E83E0981EA11CB11CBD
:1002B000E4CFFF90EF90DF90CF90BF90AF909F90F2
:1002C0008F900895089508959091000189130BC0AF
:1002D000E2E7F0E0E4919FEF90930001E13049F014
:1002E00028F0E23061F060E00C948D0010926E0016
:1002F000FACF90916F009D7F90936F00F4CF909113
:1003000070009D7F9093700091E09093B000909169
:10031000B100987F94609093B1001092B300E3CF46
:10032000AF92BF92CF92DF92EF92FF920F931F9303
:10033000CF93DF936C017B018B01040F151FEB0141
:100340005E01AE18BF08C017D10759F06991D601F8
:10035000ED91FC910190F081E02DC6010995892B6A
:1003600079F7C501DF91CF911F910F91FF90EF9029
:10037000DF90CF90BF90AF900895FC01538D448DD6
:10038000252F30E0842F90E0821B930B541710F040
:10039000CF96089501970895FC01918D828D98174D
:1003A00061F0A28DAE0FBF2FB11D5D968C91928D25
:1003B0009F5F9F73928F90E008958FEF9FEF089556
:1003C000FC01918D828D981731F0828DE80FF11D1F
:1003D000858D90E008958FEF9FEF0895FC01918D3A
:1003E000228D892F90E0805C9F4F821B91098F7333
:1003F000992708958AE692E00E94EE0121E0892B78
:1004000009F420E0822F089580E090E0892B29F004
:100410000E94FA0181110C9400000895FC01A48D42
:10042000A80FB92FB11DA35ABF4F2C91848D90E016
:1004300001968F739927848FA689B7892C93A089F9
:10044000B1898C91837080648C93938D848D981383
:1004500006C00288F389E02D80818F7D8083089516
:10046000EF92FF920F931F93CF93DF93EC0181E004
:10047000888F9B8D8C8D98131AC0E889F9898081AB
:1004800085FF15C09FB7F894EE89FF896083E889DE
:10049000F98980818370806480839FBF81E090E0D0
:1004A000DF91CF911F910F91FF90EF900895F62E5D
:1004B0000B8D10E00F5F1F4F0F731127E02E8C8DF7
:1004C0008E110CC00FB607FCFACFE889F98980813C
:1004D00085FFF5CFCE010E940E02F1CFEB8DEC0F20
:1004E000FD2FF11DE35AFF4FF0829FB7F8940B8F59
:1004F000EA89FB8980818062CFCFCF93DF93EC01C3
:10050000888D8823B9F0AA89BB89E889F9898C91FB
:1005100085FD03C0808186FD0DC00FB607FCF7CFB7
:100520008C9185FFF2CF808185FFEDCFCE010E94B7
:100530000E02E9CFDF91CF91089508952091D70160
:10054000260F3327331F21323105ECF4209120028E
:10055000FC0190E080E0243069F082E00895A091F1
:10056000D7012191AC0149545E4FA40FB52FB11DA5
:100570002C930196861798F38091D701680F6093AA
:10058000D70180E0089581E008951092200281E073
:1005900080931F021092FA0161E082E10E948D00B7
:1005A00061E083E10E948D00E9EBF0E080818E7FC5
:1005B000808380818D7F808388E48093B80085E488
:1005C0008093BC000895CF93DF9391E09093B601A0
:1005D0008823B9F0C091B800D091BA008091BC00D6
:1005E0008A7B8093BC0060E082E10E948D0060E025
:1005F00083E10E948D000E94C502D093BA00C0938F
:10060000B800DF91CF9108950895E0914F02809155
:100610004E02E81730F4F0E0EA56FE4F808190E099
:1006200008958FEF9FEF089590914F0280914E02B1
:100630002FEF3FEF981748F4E92FF0E0EA56FE4F0E
:10064000208130E09F5F90934F02C901089580910F
:100650004E0290914F02891B990B0895CF92DF9221
:10066000EF92FF920F931F93CF93DF937C01CB0107
:100670008A0120912602222389F0EB016B01C40E2E
:10068000D51ECC15DD0569F06991D701ED91FC917E
:100690000190F081E02DC7010995F3CF642F0E94EE
:1006A0009E02C801DF91CF911F910F91FF90EF90B3
:1006B000DF90CF900895CF93DF931F92CDB7DEB731
:1006C0006983209126022223F9F020914C022032E6
:1006D00058F021E030E0FC013383228390E080E099
:1006E0000F90DF91CF91089580914D02E82FF0E0B7
:1006F000E95DFD4F998190838F5F80934D028093D8
:100700004C0281E090E0ECCF61E0CE0101960E94C6
:100710009E02F7CFCF92DF92EF92FF920F931F933B
:10072000CF93DF93FC01C48121E020932602C09384
:10073000470210924D0210924C028485682B87E08C
:1007400093E00E945B03D0914C02D13208F092C03A
:100750000E940A016B017C0180912002811165C019
:1007600082E08093200281E080931F028FEF8093CC
:100770001E0210921D02D0931C02A7E2B2E0ECEF21
:10078000F1E080E0D81385C01092FB018091FB015D
:10079000CC0FC82BC093FB018091FA01813009F086
:1007A0007CC01092FA010E940A016B017C018091C9
:1007B000FB018093BB008091220290912302A091C3
:1007C0002402B0912502892B8A2B8B2B99F00E9451
:1007D0000A010091220210912302209124023091FB
:1007E00025026C197D098E099F090617170728072E
:1007F0003907E0F18091BC0083FDD9CF85EC80936F
:10080000BC000E940A016B017C01809120028230B1
:1008100009F445C080911E028F3F61F180911E0254
:10082000803241F180911E0225C080912202909178
:100830002302A0912402B0912502892B8A2B8B2BB5
:1008400009F48ACF0E940A0100912202109123022A
:1008500020912402309125026C197D098E099F098F
:10086000061717072807390708F076CF809121026D
:100870000E94E30210924D0210924C021092260246
:10088000DF91CF911F910F91FF90EF90DF90CF906C
:1008900008959D9191938F5F75CF85EEB0CF809134
:1008A000220290912302A0912402B0912502892B6B
:1008B0008A2B8B2B09F4A9CF0E940A0100912202F6
:1008C0001091230220912402309125026C197D0998
:1008D0008E099F09061717072807390708F095CFD3
:1008E000C5CF90E080E008950F931F93CF938C01C4
:1008F000C62F0E948A036C2F6460C8010E948A037D
:100900006C2F6B7FC8010E948A0383EC90E00197F3
:10091000F1F7CF911F910F9108950F931F93CF93EC
:10092000DF938C01D62FC42F607F642B0E94740448
:1009300080E1D89FB00111246C2BC801DF91CF91C9
:100940001F910F910C947404CF93DF93CDB7DEB752
:1009500028970FB6F894DEBF0FBECDBF98E0E1E058
:10096000F1E0DE01119601900D929A95E1F79091D8
:100970001B03981708F48FEF90E0880F991F21E070
:1009800030E02C0F3D1F820F931FFC0160816068D7
:1009900040E083E193E028960FB6F894DEBF0FBEE7
:1009A000CDBFDF91CF910C948D0440E061E083E1F5
:1009B00093E00E948D048BE39FE10197F1F7809112
:1009C0001C03882319F080E00C94A404089541E0EE
:1009D0000E948D0481E090E00895FB0101900020C9
:1009E000E9F73197AF01461B570BDC01ED91FC9104
:1009F0000280F381E02D09944F925F926F927F9273
:100A00008F929F92AF92BF92EF92FF920F931F939C
:100A1000CF93DF93CDB7DEB7A1970FB6F894DEBFC3
:100A20000FBECDBF8C014A015B01DC01ED91FC9151
:100A30000190F081E02D6DE209957C01222733279A
:100A4000A901281939094A095B0919A25E01B1E215
:100A5000AB0EB11C8AE0482E512C612C712CCA01BE
:100A6000B901A30192010E94D40B605DF50162936C
:100A70005F01211531054105510589F790E080E0BE
:100A8000309721F0BF01C8010E94ED048E0D9F1D1B
:100A9000A1960FB6F894DEBF0FBECDBFDF91CF9108
:100AA0001F910F91FF90EF90BF90AF909F908F900C
:100AB0007F906F905F904F90089585ED8093BC007C
:100AC0008091220290912302A0912402B0912502EC
:100AD0000796A11DB11D23E0B695A795979587951B
:100AE0002A95D1F72091BC0024FD03C0109220026A
:100AF0000895409122025091230260912402709146
:100B00002502452B462B472B69F30097A105B1051C
:100B100041F02AE22A95F1F700C00197A109B10935
:100B2000E1CF809121020C94E3021F920F920FB645
:100B30000F9211242F933F938F939F93AF93BF9363
:100B40008091620290916302A0916402B09165026B
:100B50003091610223E0230F2D3758F50196A11D36
:100B6000B11D209361028093620290936302A0936F
:100B70006402B09365028091660290916702A09131
:100B80006802B09169020196A11DB11D80936602B1
:100B900090936702A0936802B0936902BF91AF91EE
:100BA0009F918F913F912F910F900FBE0F901F90AB
:100BB000189526E8230F0296A11DB11DD2CF1F92D2
:100BC0000F920FB60F9211242F933F934F935F9381
:100BD0006F937F938F939F93AF93BF93EF93FF9305
:100BE0008091550290915602A0915702B0915802FF
:100BF000892B8A2B8B2BD1F190915002E0915102DD
:100C0000F0915202808189278083809155029091D2
:100C10005602A0915702B0915802181619061A06EA
:100C20001B069CF48091550290915602A0915702A8
:100C3000B09158020197A109B10980935502909390
:100C40005602A0935702B0935802FF91EF91BF91C3
:100C5000AF919F918F917F916F915F914F913F9154
:100C60002F910F900FBE0F901F901895809100014B
:100C70000E946401EACF1F920F920FB60F921124C7
:100C80002F933F934F935F936F937F938F939F9394
:100C9000AF93BF93EF93FF938AE692E00E940E0218
:100CA000FF91EF91BF91AF919F918F917F916F9144
:100CB0005F914F913F912F910F900FBE0F901F901A
:100CC00018951F920F920FB60F9211242F938F93A6
:100CD0009F93EF93FF93E0917A02F0917B028081E2
:100CE000E0918002F091810282FD1BC09081809191
:100CF00083028F5F8F7320918402821741F0E0910D
:100D00008302F0E0E659FD4F958F80938302FF91B7
:100D1000EF919F918F912F910F900FBE0F901F9089
:100D200018958081F4CF1F920F920FB60F92112465
:100D30002F933F934F935F936F937F938F939F93E3
:100D4000AF93BF93EF93FF938091B900887F803674
:100D500009F44AC0F0F5883209F4A7C018F58031CB
:100D600009F49BC0B8F4882309F4F9C0883009F469
:100D700094C0FF91EF91BF91AF919F918F917F911F
:100D80006F915F914F913F912F910F900FBE0F90F8
:100D90001F901895883109F488C0803251F78093EC
:100DA0001E0214C0803409F49DC040F48033B9F3AE
:100DB0008833F9F680931E0285ECB0C0803509F4C3
:100DC00085C0883509F496C0883499F60E945D057F
:100DD000D0CF883909F48CC038F5883729F050F421
:100DE000883611F0803729F683E080932002109234
:100DF000F90157C0883809F47BC0803919F0803870
:100E000009F0B7CF8091F901803208F071C0E0910C
:100E1000F90181E08E0F8093F9018091BB00F0E031
:100E2000E752FE4F80833DC0803B39F0E0F4803ACA
:100E300009F479C0883A09F09CCF84E080932002BD
:100E40001092D8011092D701E0914A02F0914B0222
:100E500009958091D70181110FC081E08093D7015E
:100E60001092B70109C0803C09F4A6CF883C09F470
:100E7000A3CF883B09F07DCFE091D80181E08E0FB0
:100E80008093D801F0E0E954FE4F80818093BB004D
:100E90009091D8018091D70129C08091FB01809366
:100EA000BB0085EC8093BC0064CF90911D028091C3
:100EB0001C02981758F5E0911D0281E08E0F809377
:100EC0001D02F0E0E450FE4F8081E9CFE0911D0269
:100ED00081E08E0F80931D028091BB00F0E0E45012
:100EE000FE4F808390911D0280911C029817C8F2DA
:100EF00085E8D8CFE0911D0281E08E0F80931D021E
:100F00008091BB00F0E0E450FE4F808380911F028F
:100F100081115CCF81E08093FA0184EA8093BC0068
:100F20001092200226CF85EC8093BC001092200204
:100F30008091F901803230F4E091F901F0E0E7525C
:100F4000FE4F10826091F90170E0E0914802F0914B
:100F5000490289ED91E009951092F9010ACF1092AA
:100F60001E0234CFCF92DF92EF92FF920F931F9326
:100F7000E82FF92F05C0015011092109310961F14C
:100F8000908196239417B9F305C0015011092109E6
:100F9000310911F1908196239413F7CFC12CD12CF4
:100FA000E12CF12C0AC08FEFC81AD80AE80AF80A17
:100FB0000C151D052E053F0579F0808186238417C9
:100FC00091F36C2D7D2D8E2D9F2D1F910F91FF90F4
:100FD000EF90DF90CF90089560E070E080E090E0C7
:100FE0001F910F91FF90EF90DF90CF900895EAE668
:100FF000F2E01382128288EE93E0A0E0B0E08483F6
:101000009583A683B7832DE031E03183208325ECDF
:1010100030E03587248724EC30E03787268720ECC2
:1010200030E0318B208B21EC30E0338B228B22ECB3
:1010300030E0358B248B26EC30E0378B268B118EFD
:10104000128E138E148EE7E0F3E0138212828483F3
:101050009583A683B7838FE191E091838083E3E159
:10106000F3E01382128281E391E091838083118601
:1010700087E2848380E1828782E0838714860895F3
:10108000CF93DF93CDB7DEB7A1970FB6F894DEBF4D
:101090000FBECDBF789484B5826084BD84B5816075
:1010A00084BD85B5826085BD85B5816085BD809133
:1010B0006E00816080936E001092810080918100AB
:1010C00082608093810080918100816080938100A3
:1010D000809180008160809380008091B100846065
:1010E0008093B1008091B00081608093B0008091C6
:1010F0007A00846080937A0080917A008260809385
:101100007A0080917A00816080937A0080917A00E1
:10111000806880937A001092C100E0917A02F09189
:101120007B0282E08083E0917602F0917702108268
:10113000E0917802F09179028FEC80831092820224
:10114000E0917E02F0917F0286E08083E0917C0254
:10115000F0917D02808180618083E0917C02F0913A
:101160007D02808188608083E0917C02F0917D0225
:10117000808180688083E0917C02F0917D02808193
:101180008F7D808361E089E00E94D90060E08AE081
:101190000E94D90061E083E00E94D90061E084E010
:1011A0000E94D90061E085E00E94D90061E086E0FC
:1011B0000E94D90060E089E00E948D0010924F02E9
:1011C00010924E0210924D0210924C020E94C502E3
:1011D00082E691E090934B0280934A0283E691E08D
:1011E00090934902809348021092180380911E0345
:1011F000823018F098E09093180380931B0362E309
:1012000070E080E090E00E942F0160911F0383E175
:1012100093E00E948A0368EE73E080E090E00E9411
:101220002F0160E383E193E00E9474040BE416E471
:10123000C8010197F1F760E383E193E00E94740431
:10124000C8010197F1F760E383E193E00E94740421
:1012500083E592E00197F1F760E283E193E00E9479
:10126000740460911803606240E083E193E00E949F
:101270008D0484E08093190340E06CE083E193E007
:101280000E948D040E94D50482E080931A0340E0FE
:1012900066E083E193E00E948D0440E062E083E138
:1012A00093E00E948D048BE39FE10197F1F788E0C2
:1012B00080931F0360E083E193E00E948A0380E053
:1012C0000E94A40469E371E083E193E00E94ED04CD
:1012D00068EE73E080E090E00E942F010E94D50448
:1012E0005AE0452E512C612C712C88248A94982C1C
:1012F000540141EA242E40E0342E60E089E00E944F
:101300008D0083E090E00197F1F761E089E00E94B1
:101310008D0083E290E00197F1F760E089E00E94A0
:101320008D00E5EAF0E06491E1E9F0E08491E82FD6
:10133000F0E0EE0FFF1FE859FF4F8591949100E315
:1013400015E720E030E0462F0E94B20761157105D5
:101350008105910519F16F5F7F4F8F4F9F4F9F70F0
:101360006115710581059105C9F00E943B0C28E2C9
:101370003EE74CE05DE30E94A10C20E030E040E05D
:101380005FE30E94A10C0E94050C6B017C01FFEF42
:10139000CF16DF06EF06FF0609F040C068E471E0F3
:1013A0008AE692E00E94ED0460E571E08AE692E050
:1013B0000E94ED0460E083E00E948D0060E084E024
:1013C0000E948D0060E085E00E948D0086E00E9412
:1013D000640180E00E94A40463E571E083E193E08E
:1013E0000E94ED0481E00E94A40462E671E083E1C2
:1013F00093E00E94ED0466E970E080E090E00E94D6
:101400002F01E0E0F0E0EF2B09F477CF0E94FA0122
:10141000882309F46ECF0E9400006BCF61E771E072
:101420008AE692E00E94ED04F7FE43C0B701A601F0
:101430008AE692E00E94FC046CE771E08AE692E0A2
:101440000E94ED0460E571E08AE692E00E94ED04FE
:1014500080E00E94A40460E871E083E193E00E94D0
:10146000ED0481E00E94A404F7FE41C0B701A6018B
:1014700083E193E00E94FC046FE871E083E193E074
:101480000E94ED04F3E3CF16D104E104F1040CF45F
:101490004CC061E083E00E948D0060E084E00E9427
:1014A0008D0060E085E00E948D0086E00E9464016E
:1014B000A2CFA701960119A28E010F5D1F4FCA018D
:1014C000B901A30192010E94D40B605DF8016293FF
:1014D0008F01211531054105510589F7309709F430
:1014E000ABCFBF018AE692E00E94ED04A5CFA70131
:1014F000960119A28E010F5D1F4FCA01B901A30108
:1015000092010E94D40B605DF80162938F01211556
:1015100031054105510589F7309709F4ADCFBF0179
:1015200083E193E00E94ED04A7CF60E085E1C81657
:10153000D104E104F1042CF083E00E948D0061E00D
:10154000ADCF83E00E948D0060E084E00E948D00BA
:1015500061E085E00E948D00A4EFB1E0A701960153
:101560000E94C90B24E130E040E050E00E94AA0B49
:1015700069017A0194E6C90ED11CE11CF11C80912D
:101580000001863031F5E2E7F0E0149117FDC2C0AA
:1015900061E086E00E94D900112309F48CC012306A
:1015A00009F09DC08091B100887F83608093B10075
:1015B00089EF8093B3008092550290925602A092D8
:1015C0005702B09258028091700082608093700040
:1015D000A1C08F3F09F09EC086E080930001E2E742
:1015E000F0E014911F3F09F495C0113021F150F043
:1015F000123009F43EC017FD8DC061E086E00E9404
:10160000D900CDCF14BC15BC84B5826084BD85B52E
:10161000816085BDEDE8F0E08491E82FF0E0EE0F09
:10162000FF1FE358FF4F85919491F10184918093BE
:10163000540210E0ADCF1092800010928100809192
:101640008100886080938100809181008160809317
:101650008100EDE8F0E08491E82FF0E0EE0FFF1F4D
:10166000E358FF4F85919491F10184918093530247
:101670008FCF1092B0001092B1008091B0008260C4
:101680008093B0008091B10081608093B100EDE85B
:10169000F0E08491E82FF0E0EE0FFF1FE358FF4FDA
:1016A000859194919093520280935102F10184911B
:1016B000809350026DCF85B5887F836085BD8CE7B0
:1016C00087BD80925D0290925E02A0925F02B0920E
:1016D000600280916E00826080936E001BC01130AA
:1016E00089F580918100887F8160809381008FE3FC
:1016F0009FE1909389008093880080925902909294
:101700005A02A0925B02B0925C0280916F008260EC
:1017100080936F0060E570E080E090E00E942F0110
:1017200086E00E946401B6016035710514F460E53D
:1017300070E060557109072E000C880B990B0E9410
:101740002F0159CE123021F01111E4CF8FE3B8CF21
:101750008FE32FCF052E97FB1EF400940E94C10B40
:1017600057FD07D00E94D40B07FC03D04EF40C9415
:10177000C10B50954095309521953F4F4F4F5F4F8E
:10178000089590958095709561957F4F8F4F9F4FED
:1017900008950E94F60BA59F900DB49F900DA49FF5
:1017A000800D911D11240895A1E21A2EAA1BBB1BC6
:1017B000FD010DC0AA1FBB1FEE1FFF1FA217B3071D
:1017C000E407F50720F0A21BB30BE40BF50B661F33
:1017D000771F881F991F1A9469F7609570958095F7
:1017E00090959B01AC01BD01CF010895A29FB0016E
:1017F000B39FC001A39F700D811D1124911DB29F45
:10180000700D811D1124911D08950E940C0C689487
:10181000B1110C949B0C08950E94800C88F09F5786
:1018200098F0B92F9927B751B0F0E1F0660F771F04
:10183000881F991F1AF0BA95C9F714C0B13091F0FA
:101840000E949A0CB1E008950C949A0C672F782F9F
:101850008827B85F39F0B93FCCF3869577956795BF
:10186000B395D9F73EF490958095709561957F4F2B
:101870008F4F9F4F0895E89409C097FB3EF49095D1
:101880008095709561957F4F8F4F9F4F9923A9F059
:10189000F92F96E9BB279395F695879577956795E8
:1018A000B795F111F8CFFAF4BB0F11F460FF1BC02C
:1018B0006F5F7F4F8F4F9F4F16C0882311F096E9BF
:1018C00011C0772321F09EE8872F762F05C066236D
:1018D00071F096E8862F70E060E02AF09A95660F26
:1018E000771F881FDAF7880F9695879597F90895DF
:1018F00057FD9058440F551F59F05F3F71F04795C1
:10190000880F97FB991F61F09F3F79F087950895A5
:10191000121613061406551FF2CF4695F1DF08C0C4
:10192000161617061806991FF1CF869571056105E1
:1019300008940895E894BB2766277727CB0197F989
:1019400008950E94B40C0C94250D0E94170D38F0D8
:101950000E941E0D20F0952311F00C940E0D0C9496
:10196000140D11240C949B0C0E94780C70F3959F1D
:10197000C1F3950F50E0551F629FF001729FBB2786
:10198000F00DB11D639FAA27F00DB11DAA1F649F22
:101990006627B00DA11D661F829F2227B00DA11DD5
:1019A000621F739FB00DA11D621F839FA00D611D5B
:1019B000221F749F3327A00D611D231F849F600D7C
:1019C000211D822F762F6A2F11249F5750409AF0A5
:1019D000F1F088234AF0EE0FFF1FBB1F661F771F31
:1019E000881F91505040A9F79E3F510580F00C94FC
:1019F0000E0D0C949B0C5F3FE4F3983ED4F3869558
:101A000077956795B795F795E7959F5FC1F7FE2B9B
:101A1000880F911D9695879597F9089597F99F6777
:101A200080E870E060E008959FEF80EC0895002466
:101A30000A941616170618060906089500240A9433
:101A400012161306140605060895092E0394000CB9
:101A500011F4882352F0BB0F40F4BF2B11F460FF48
:101A600004C06F5F7F4F8F4F9F4F0895EE0FFF1F92
:0C1A70000590F491E02D0994F894FFCF4C
:101A7C00FF000040001400540000000000300290F1
:101A8C0001BD017D02EE01CC01E001000000005B14
:101A9C00032E037104040327031403050300000041
:101AAC0000E704900171049D0244697374616E63D4
:101ABC0065204D65746572004E6F206563686F001C
:101ACC000D0A004E6F204563686F202020202020D7
:101ADC002000436865636B2073656E736F72202002
:101AEC000044697374616E63653A200020636D0075
:101AFC0044697374616E63653A20202020200020B5
:061B0C00636D20202000A3
:00000001FF
