:100000000C9462000C948A000C948A000C948A0070
:100010000C948A000C948A000C948A000C948A0038
:100020000C948A000C948A000C948A000C948A0028
:100030000C948A000C948A000C948A000C948A0018
:100040000C94E4030C948A000C948A000C948A00AB
:100050000C948A000C948A000C948A000C948A00F8
:100060000C942E040C948A0000000000230026004B
:10007000290000000000240027002A0000000000E2
:10008000250028002B0004040404040404040202D4
:100090000202020203030303030301020408102007
:1000A0004080010204081020010204081020000012
:1000B0000008000201000003040700000000000027
:1000C0000000490511241FBECFEFD8E0DEBFCDBF31
:1000D00011E0A0E0B1E0EAE9FDE002C005900D9278
:1000E000AA34B107D9F722E0AAE4B1E001C01D9219
:1000F000A430B207E1F710E0C2E6D0E004C02197D7
:10010000FE010E94C506C136D107C9F70E946A05E3
:100110000C94CB060C940000833081F028F48130DD
:1001200099F08230A9F008958730A9F08830C9F09D
:100130008430B1F4809180008F7D03C08091800075
:100140008F7780938000089584B58F7784BD08955C
:1001500084B58F7DFBCF8091B0008F778093B00006
:1001600008958091B0008F7DF9CF1F93CF93DF93D7
:10017000282F30E0F901E255FF4F8491F901E6564E
:10018000FF4FD491F901EA57FF4FC491CC23A9F056
:10019000162F81110E948C00EC2FF0E0EE0FFF1F54
:1001A000E458FF4FA591B4918FB7F894EC911111D9
:1001B00008C0D095DE23DC938FBFDF91CF911F91D4
:1001C0000895DE2BF8CFCF93DF9390E0FC01E65645
:1001D000FF4F24918A579F4FFC0184918823D1F0CF
:1001E00090E0880F991FFC01EE58FF4FA591B49144
:1001F000FC01E458FF4FC591D491623071F49FB770
:10020000F8943C91822F809583238C93E8812E2B48
:1002100028839FBFDF91CF9108958FB7F894EC9119
:100220002E2B2C938FBFF6CF3FB7F8948091E70128
:100230009091E801A091E901B091EA0126B5A89B4F
:1002400005C02F3F19F00196A11DB11D3FBFBA2F68
:10025000A92F982F8827BC01CD01620F711D811D28
:10026000911D42E0660F771F881F991F4A95D1F7AD
:1002700008958F929F92AF92BF92CF92DF92EF92AA
:10028000FF924B015C010E9414016B017C010E94F2
:1002900014016C197D098E099F09683E7340810520
:1002A0009105A8F321E0821A9108A108B10888EE0F
:1002B000C80E83E0D81EE11CF11C81149104A10436
:1002C000B10429F7FF90EF90DF90CF90BF90AF90EF
:1002D0009F908F900895AF92BF92CF92DF92EF924E
:1002E000FF920F931F93CF93DF936C017B018B01E0
:1002F000040F151FEB015E01AE18BF08C017D10730
:1003000059F06991D601ED91FC910190F081E02DB9
:10031000C6010995892B79F7C501DF91CF911F910E
:100320000F91FF90EF90DF90CF90BF90AF90089526
:100330001F93CF93DF93C1E0C0937401882399F199
:10034000D091B8001091BA008091BC008A7B809354
:10035000BC0060E082E10E94B50060E083E10E94A1
:10036000B5001092B901C093BB011092BA0161E0CF
:1003700082E10E94B50061E083E10E94B5008091B6
:10038000B9008E7F8093B9008091B9008D7F8093F2
:10039000B90088E48093B80085E48093BC00109392
:1003A000BA00D093B800DF91CF911F9108952091AA
:1003B0009501260F3327331F21323105ECF42091AC
:1003C000B901FC0190E080E0243069F082E00895FA
:1003D000A09195012191AC014B585E4FA40FB52F10
:1003E000B11D2C930196861798F380919501680FA3
:1003F0006093950180E0089581E0089508958FEF5E
:100400009FEF08958FEF9FEF089580916E0190E028
:100410009195819591090895CF92DF92EF92FF9285
:100420000F931F93CF93DF937C01CB018A0120911F
:100430006D01222389F0EB016B01C40ED51ECC1592
:10044000DD0569F06991D701ED91FC910190F08192
:10045000E02DC7010995F3CF642F0E94D701C80191
:10046000DF91CF911F910F91FF90EF90DF90CF9090
:100470000895CF93DF931F92CDB7DEB769832091A4
:100480006D012223F9F020916C01203258F021E017
:1004900030E0FC013383228390E080E00F90DF9115
:1004A000CF91089580916B01E82FF0E0E55BFE4F5E
:1004B000998190838F5F80936B0180936C0181E0C1
:1004C00090E0ECCF61E0CE0101960E94D701F7CF1A
:1004D000CF92DF92EF92FF920F931F93CF93DF9310
:1004E000FC01C48121E020936D01C0934A01109268
:1004F0006B0110926C018485682B8BEE91E00E9459
:100500003902D0916C01D13208F092C00E941401DE
:100510006B017C018091B901811165C082E08093FB
:10052000B90181E08093BB018FEF8093B8011092F5
:10053000DD01D093DC01ABE4B1E0ECEBF1E080E075
:10054000D81385C01092DE018091DE01CC0FC82B3C
:10055000C093DE018091BA01813009F07CC0109215
:10056000BA010E9414016B017C018091DE0180932D
:10057000BB008091700190917101A0917201B091C6
:100580007301892B8A2B8B2B99F00E941401009107
:1005900070011091710120917201309173016C19F9
:1005A0007D098E099F090617170728073907E0F10B
:1005B0008091BC0083FDD9CF85EC8093BC000E9464
:1005C00014016B017C018091B901823009F445C0AE
:1005D0008091B8018F3F61F18091B801803241F183
:1005E0008091B80125C08091700190917101A09116
:1005F0007201B0917301892B8A2B8B2B09F48ACF5E
:100600000E941401009170011091710120917201FA
:10061000309173016C197D098E099F090617170720
:100620002807390708F076CF80916F010E94980162
:1006300010926B0110926C0110926D01DF91CF91BD
:100640001F910F91FF90EF90DF90CF9008959D91B3
:1006500091938F5F75CF85EEB0CF809170019091AF
:100660007101A0917201B0917301892B8A2B8B2BA0
:1006700009F4A9CF0E941401009170011091710139
:1006800020917201309173016C197D098E099F09C7
:10069000061717072807390708F095CFC5CF089523
:1006A00090E080E00895FC0101900020E9F7319787
:1006B000AF01481B590BBC0187EF91E00C946B0113
:1006C00085ED8093BC008091700190917101A091A3
:1006D0007201B09173010796A11DB11D23E0B6957B
:1006E000A795979587952A95D1F72091BC0024FD71
:1006F00003C01092B90108954091700150917101A9
:100700006091720170917301452B462B472B69F361
:100710000097A105B10541F02AE22A95F1F700C042
:100720000197A109B109E1CF80916F010C94980163
:100730000F931F93CF938C01C62F0E9468026C2FDA
:100740006460C8010E9468026C2F6B7FC8010E9420
:10075000680283EC90E00197F1F7CF911F910F9120
:1007600008950F931F93CF93DF938C01D62FC42F3F
:10077000607F642B0E94980380E1D89FB001112410
:100780006C2BC801DF91CF911F910F910C949803AE
:1007900040E060E887EF91E00C94B10340E061E055
:1007A00087EF91E00E94B1038BE39FE10197F1F79E
:1007B0008091000281110C94C803089541E00E94C9
:1007C000B10381E090E008951F920F920FB60F924F
:1007D00011242F933F938F939F93AF93BF93809157
:1007E000E3019091E401A091E501B091E60130911F
:1007F000E20123E0230F2D3758F50196A11DB11D0D
:100800002093E2018093E3019093E401A093E5013A
:10081000B093E6018091E7019091E801A091E90190
:10082000B091EA010196A11DB11D8093E70190935B
:10083000E801A093E901B093EA01BF91AF919F91C4
:100840008F913F912F910F900FBE0F901F90189591
:1008500026E8230F0296A11DB11DD2CF1F920F9241
:100860000FB60F9211242F933F934F935F936F9383
:100870007F938F939F93AF93BF93EF93FF93809159
:10088000B900887F803609F44AC0F0F5883209F44F
:10089000A5C018F5803109F499C0B8F4882309F48B
:1008A000F5C0883009F492C0FF91EF91BF91AF91EC
:1008B0009F918F917F916F915F914F913F912F9178
:1008C0000F900FBE0F901F901895883109F486C0C5
:1008D000803251F78093B80114C0803409F49BC072
:1008E00040F48033B9F38833F9F68093B80185EC8E
:1008F000AEC0803509F483C0883509F494C08834CB
:1009000099F60E946003D0CF883909F48AC038F57F
:10091000883729F050F4883611F0803729F683E0C3
:100920008093B9011092B70155C0883809F479C095
:10093000803919F0803809F0B7CF8091B701803243
:1009400008F06FC0E091B70181E08E0F8093B7018E
:100950008091BB00F0E0E956FE4F80833BC0803BB6
:1009600039F0D0F4803A09F477C0883A09F09CCF86
:1009700084E08093B9011092960110929501F0E005
:10098000E0E009958091950181110FC081E080938D
:1009900095011092750109C0803C09F4A8CF883CEC
:1009A00009F4A5CF883B09F07FCFE091960181E063
:1009B0008E0F80939601F0E0EB58FE4F808180937C
:1009C000BB00909196018091950129C08091DE0134
:1009D0008093BB0085EC8093BC0066CF9091DD01D5
:1009E0008091DC01981758F5E091DD0181E08E0FD0
:1009F0008093DD01F0E0E454FE4F8081E9CFE09187
:100A0000DD0181E08E0F8093DD018091BB00F0E07D
:100A1000E454FE4F80839091DD018091DC019817B2
:100A2000C8F285E8D8CFE091DD0181E08E0F809398
:100A3000DD018091BB00F0E0E454FE4F80838091A3
:100A4000BB0181115ECF81E08093BA0184EA80937B
:100A5000BC001092B90128CF85EC8093BC001092A5
:100A6000B9018091B701803230F4E091B701F0E034
:100A7000E956FE4F10826091B70170E087E991E07E
:100A8000F0E0E0E009951092B7010ECF1092B801A6
:100A900038CFEBEEF1E01382128288EE93E0A0E013
:100AA000B0E084839583A683B78385E091E091834A
:100AB0008083E7EFF1E01382128287E191E0918376
:100AC0008083118687E2848380E1828782E0838746
:100AD00014860895789484B5826084BD84B581605D
:100AE00084BD85B5826085BD85B5816085BD8091F9
:100AF0006E00816080936E00109281008091810071
:100B00008260809381008091810081608093810068
:100B1000809180008160809380008091B10084602A
:100B20008093B1008091B00081608093B00080918B
:100B30007A00846080937A0080917A00826080934A
:100B40007A0080917A00816080937A0080917A00A7
:100B5000806880937A001092C10062E082E00E9477
:100B6000E30061E083E00E94E30061E084E00E9432
:100B7000E3008091FC0188608093FC0112E01093F7
:100B8000FF0162E370E080E090E00E943901609133
:100B9000030287EF91E00E94680268EE73E080E054
:100BA00090E00E94390160E387EF91E00E94980392
:100BB000CBE4D6E4CE010197F1F760E387EF91E053
:100BC0000E9498032197F1F760E387EF91E00E947C
:100BD000980383E592E00197F1F760E287EF91E0F7
:100BE0000E9498036091FC01606240E087EF91E011
:100BF0000E94B10384E08093FD0140E06CE087EF48
:100C000091E00E94B1030E94CE031093FE0140E0E8
:100C100066E087EF91E00E94B10340E062E087EF79
:100C200091E00E94B1038BE39FE10197F1F788E027
:100C30008093030260E087EF91E00E9468020E94C7
:100C4000C8038FE191E00E94530368EE73E080E0F7
:100C500090E00E9439010E94CE03C0EBD0E00CE985
:100C600010E098E8E92E90E0F92E20E0C22E20E076
:100C7000D22EFE018491F801A490F701B490BB201C
:100C800009F464C081110E948C00EB2DF0E0EE0F9E
:100C9000FF1FE859FF4FA591B4918C91A82231E034
:100CA00020E009F430E0832F922F282F2170209329
:100CB000E10120910001222389F1892B79F58091AE
:100CC000DF019091E0010196833091050CF041C065
:100CD0009093E0018093DF010E94CE030E94C8033D
:100CE00082E391E00E9453038091DF019091E00143
:100CF0008130910599F182309105A9F1892B41F458
:100D000043E050E069E371E087EF91E00E946B01FE
:100D10006CE271E080E090E00E9439018091E10195
:100D2000809300018091DF019091E0018130910575
:100D3000E9F08230910519F160E0892BC1F0C1140E
:100D4000D10409F496CF0E94000093CF90E080E098
:100D5000ACCF1092E0011092DF01BECF8DE391E0A5
:100D60000E945303D5CF81E491E0FACF61E083E0A4
:100D70000E94B50060E084E00E94B500E0CF60E032
:100D800083E00E94B50061E0F6CFEE0FFF1F0590F3
:0A0D9000F491E02D0994F894FFCFD0
:100D9A00010000000039020C025003FE01050202A4
:100DAA0002FF0100000000DE036B0150034F0353F2
:100DBA00797374656D205374617274696E672E2E2F
:100DCA002E004D6F64653A20004F46460046616E1C
:0A0DDA000053756374696F6E00002A
:00000001FF
