:100000000C945D000C9485000C9485000C94850084
:100010000C9485000C9485000C9485000C9485004C
:100020000C9485000C9485000C9485000C9485003C
:100030000C9485000C9485000C9485000C9485002C
:100040000C9449050C9485000C94B9050C94930507
:100050000C9485000C9485000C9485000C9485000C
:100060000C94EB050C9485000000000800020100D0
:100070000003040700000000000000000000000072
:10008000250028002B0000000000240027002A0083
:10009000040404040404040402020202020203032E
:1000A0000303030301020408102040800102040836
:1000B00010200102040810200A0711241FBECFEFF0
:1000C000D8E0DEBFCDBF22E0A8E6B1E001C01D92BE
:1000D000AF3EB207E1F711E0A0E0B1E0EEECF7E1EE
:1000E00002C005900D92A836B107D9F710E0CDE512
:1000F000D0E004C02197FE010E94ED09CC35D10764
:10010000C9F70E9453070C94E50B0C94000090E093
:10011000FC01EC55FF4F249180579F4FFC018491C7
:10012000882399F090E0880F991FFC01EA57FF4F50
:10013000A591B491FC01E458FF4F859194918FB73C
:10014000F894EC91E22BEC938FBF089590E0FC01C2
:10015000E859FF4F2491FC01EC55FF4F3491FC010D
:10016000E057FF4FE491EE23C9F0222339F023300A
:1001700001F1A8F4213019F1223029F1F0E0EE0F5D
:10018000FF1FE458FF4FA591B4918FB7F894EC91FD
:10019000611126C030953E233C938FBF08952730D0
:1001A000A9F02830C9F0243049F7809180008F7D74
:1001B00003C0809180008F7780938000DFCF84B56B
:1001C0008F7784BDDBCF84B58F7DFBCF8091B0006E
:1001D0008F778093B000D2CF8091B0008F7DF9CF20
:1001E0003E2BDACF3FB7F8948091310290913202E2
:1001F000A0913302B091340226B5A89B05C02F3FD1
:1002000019F00196A11DB11D3FBFBA2FA92F982F3C
:100210008827BC01CD01620F711D811D911D42E037
:10022000660F771F881F991F4A95D1F708958F92FF
:100230009F92AF92BF92CF92DF92EF92FF924B01CB
:100240005C010E94F2006B017C010E94F2006C19BB
:100250007D098E099F09683E734081059105A8F3C9
:1002600021E0821A9108A108B10888EEC80E83E047
:10027000D81EE11CF11C81149104A104B10429F7DA
:10028000FF90EF90DF90CF90BF90AF909F908F90B6
:10029000089508950895AF92BF92CF92DF92EF92A2
:1002A000FF920F931F93CF93DF936C017B018B0120
:1002B000040F151FEB015E01AE18BF08C017D10770
:1002C00059F06991D601ED91FC910190F081E02DFA
:1002D000C6010995892B79F7C501DF91CF911F914F
:1002E0000F91FF90EF90DF90CF90BF90AF90089567
:1002F000FC01538D448D252F30E0842F90E0821B2C
:10030000930B541710F0CF96089501970895FC01B0
:10031000918D828D981761F0A28DAE0FBF2FB11D08
:100320005D968C91928D9F5F9F73928F90E0089560
:100330008FEF9FEF0895FC01918D828D981731F01A
:10034000828DE80FF11D858D90E008958FEF9FEF6E
:100350000895FC01918D228D892F90E0805C9F4F44
:10036000821B91098F739927089585E392E00E947B
:10037000A90121E0892B09F420E0822F089580E073
:1003800090E0892B29F00E94B50181110C940000A6
:100390000895FC01A48DA80FB92FB11DA35ABF4F1A
:1003A0002C91848D90E001968F739927848FA68974
:1003B000B7892C93A089B1898C91837080648C93C8
:1003C000938D848D981306C00288F389E02D808177
:1003D0008F7D80830895EF92FF920F931F93CF93A9
:1003E000DF93EC0181E0888F9B8D8C8D98131AC070
:1003F000E889F989808185FF15C09FB7F894EE8957
:10040000FF896083E889F9898081837080648083B3
:100410009FBF81E090E0DF91CF911F910F91FF90FE
:10042000EF900895F62E0B8D10E00F5F1F4F0F73A6
:100430001127E02E8C8D8E110CC00FB607FCFACF61
:10044000E889F989808185FFF5CFCE010E94C90135
:10045000F1CFEB8DEC0FFD2FF11DE35AFF4FF08232
:100460009FB7F8940B8FEA89FB8980818062CFCF98
:10047000CF93DF93EC01888D8823B9F0AA89BB89DB
:10048000E889F9898C9185FD03C0808186FD0DC0C6
:100490000FB607FCF7CF8C9185FFF2CF808185FFE7
:1004A000EDCFCE010E94C901E9CFDF91CF91089530
:1004B00008952091A901260F3327331F21323105DA
:1004C000ECF42091F201FC0190E080E0243069F02E
:1004D00082E00895A091A9012191AC0147575E4F98
:1004E000A40FB52FB11D2C930196861798F3809118
:1004F000A901680F6093A90180E0089581E0089543
:100500001092F20181E08093F1011092CC0161E040
:1005100082E10E94A60061E083E10E94A600E9EB6F
:10052000F0E080818E7F808380818D7F808388E46E
:100530008093B80085E48093BC000895CF93DF9347
:1005400091E0909388018823B9F0C091B800D091D0
:10055000BA008091BC008A7B8093BC0060E082E19D
:100560000E94A60060E083E10E94A6000E94800233
:10057000D093BA00C093B800DF91CF910895089549
:10058000E091210280912002E81730F4F0E0E85970
:10059000FE4F808190E008958FEF9FEF0895909136
:1005A0002102809120022FEF3FEF981748F4E92FA6
:1005B000F0E0E859FE4F208130E09F5F90932102E8
:1005C000C90108958091200290912102891B990B05
:1005D0000895CF92DF92EF92FF920F931F93CF93E4
:1005E000DF937C01CB018A012091F801222389F05D
:1005F000EB016B01C40ED51ECC15DD0569F06991C8
:10060000D701ED91FC910190F081E02DC701099592
:10061000F3CF642F0E945902C801DF91CF911F913F
:100620000F91FF90EF90DF90CF900895CF93DF93DD
:100630001F92CDB7DEB769832091F8012223F9F02C
:1006400020911E02203258F021E030E0FC0133837B
:10065000228390E080E00F90DF91CF910895809108
:100660001F02E82FF0E0E750FE4F998190838F5FE3
:1006700080931F0280931E0281E090E0ECCF61E046
:10068000CE0101960E945902F7CFCF92DF92EF92EE
:10069000FF920F931F93CF93DF93FC01C48121E05E
:1006A0002093F801C093190210921F0210921E02AB
:1006B0008485682B82ED92E00E941603D0911E0281
:1006C000D13208F092C00E94F2006B017C0180914F
:1006D000F201811165C082E08093F20181E0809394
:1006E000F1018FEF8093F0011092EF01D093EE01B2
:1006F000A9EFB1E0EEECF1E080E0D81385C01092F4
:10070000CD018091CD01CC0FC82BC093CD0180913C
:10071000CC01813009F07CC01092CC010E94F20023
:100720006B017C018091CD018093BB008091F4012D
:100730009091F501A091F601B091F701892B8A2BD8
:100740008B2B99F00E94F2000091F4011091F501B9
:100750002091F6013091F7016C197D098E099F09EE
:100760000617170728073907E0F18091BC0083FDC1
:10077000D9CF85EC8093BC000E94F2006B017C0114
:100780008091F201823009F445C08091F0018F3FE1
:1007900061F18091F001803241F18091F00125C03A
:1007A0008091F4019091F501A091F601B091F701CB
:1007B000892B8A2B8B2B09F48ACF0E94F20000919F
:1007C000F4011091F5012091F6013091F7016C19B7
:1007D0007D098E099F09061717072807390708F0B2
:1007E00076CF8091F3010E949E0210921F02109218
:1007F0001E021092F801DF91CF911F910F91FF908F
:10080000EF90DF90CF9008959D9191938F5F75CF7A
:1008100085EEB0CF8091F4019091F501A091F601A1
:10082000B091F701892B8A2B8B2B09F4A9CF0E9459
:10083000F2000091F4011091F5012091F601309140
:10084000F7016C197D098E099F09061717072807FC
:10085000390708F095CFC5CF90E080E00895FC01FE
:1008600001900020E9F73197AF01481B590BBC01FB
:1008700085E392E00C944B010F931F93CF938C016F
:10088000C62F0E9445036C2F6460C8010E94450377
:100890006C2F6B7FC8010E94450383EC90E00197A9
:1008A000F1F7CF911F910F9108950F931F93CF935D
:1008B000DF938C01D62FC42F607F642B0E943C04F1
:1008C00080E1D89FB00111246C2BC801DF91CF913A
:1008D0001F910F910C943C04CF93DF93CDB7DEB7FB
:1008E00028970FB6F894DEBF0FBECDBF98E0E6E0C4
:1008F000F1E0DE01119601900D929A95E1F7909149
:10090000E602961710F46FEF690F262F30E0220FE2
:10091000331F41E050E04C0F5D1F240F351FF901DC
:100920006081680F606840E08EED92E028960FB617
:10093000F894DEBF0FBECDBFDF91CF910C9455046C
:10094000CF93DF93EC012C813D8180E190E0821B0D
:10095000930B97FD0196959587950E946C044C81A9
:100960005D81688179818EED92E0DF91CF910C9469
:100970004B0140E061E08EED92E00E9455048BE374
:100980009FE10197F1F78091E702882321F060E071
:1009900080E00C946C04089541E00E94550481E0CD
:1009A00090E00895EF92FF920F931F93CF93DF9300
:1009B000EC017B018A0188819981009729F02A81C5
:1009C0003B812417350788F4B8016F5F7F4F0E9481
:1009D000180B009791F0998388831B830A832C81DD
:1009E0003D81232B11F4FC0110821D830C83B70180
:1009F000888199810E94DE0B0CC0888199810097C3
:100A000011F00E948F0A198218821D821C821B829B
:100A10001A82CE01DF91CF911F910F91FF90EF903D
:100A2000089585ED8093BC008091F4019091F501CB
:100A3000A091F601B091F7010796A11DB11D23E029
:100A4000B695A795979587952A95D1F72091BC00E3
:100A500024FD03C01092F20108954091F4015091D9
:100A6000F5016091F6017091F701452B462B472B5C
:100A700069F30097A105B10541F02AE22A95F1F743
:100A800000C00197A109B109E1CF8091F3010C9455
:100A90009E021F920F920FB60F9211242F933F9335
:100AA0008F939F93AF93BF9380912D0290912E02CD
:100AB000A0912F02B091300230912C0223E0230F3D
:100AC0002D3758F50196A11DB11D20932C0280935E
:100AD0002D0290932E02A0932F02B09330028091AA
:100AE000310290913202A0913302B091340201960A
:100AF000A11DB11D8093310290933202A093330265
:100B0000B0933402BF91AF919F918F913F912F91FC
:100B10000F900FBE0F901F90189526E8230F029696
:100B2000A11DB11DD2CF1F920F920FB60F921124AB
:100B30002F933F934F935F936F937F938F939F93E5
:100B4000AF93BF93EF93FF9385E392E00E94C901B7
:100B5000FF91EF91BF91AF919F918F917F916F9195
:100B60005F914F913F912F910F900FBE0F901F906B
:100B700018951F920F920FB60F9211242F938F93F7
:100B80009F93EF93FF93E0914502F091460280819D
:100B9000E0914B02F0914C0282FD1BC0908180914C
:100BA0004E028F5F8F7320914F02821741F0E091C8
:100BB0004E02F0E0EB5CFD4F958F80934E02FF916B
:100BC000EF919F918F912F910F900FBE0F901F90DB
:100BD00018958081F4CF1F920F920FB60F921124B7
:100BE0002F933F934F935F936F937F938F939F9335
:100BF000AF93BF93EF93FF938091B900887F8036C6
:100C000009F44AC0F0F5883209F4A7C018F580311C
:100C100009F49BC0B8F4882309F4F9C0883009F4BA
:100C200094C0FF91EF91BF91AF919F918F917F9170
:100C30006F915F914F913F912F910F900FBE0F9049
:100C40001F901895883109F488C0803251F780933D
:100C5000F00114C0803409F49DC040F48033B9F32E
:100C60008833F9F68093F00185ECB0C0803509F443
:100C700085C0883509F496C0883499F60E9411051C
:100C8000D0CF883909F48CC038F5883729F050F472
:100C9000883611F0803729F683E08093F2011092B4
:100CA000CB0157C0883809F47BC0803919F08038EF
:100CB00009F0B7CF8091CB01803208F071C0E0918C
:100CC000CB0181E08E0F8093CB018091BB00F0E0DF
:100CD000E555FE4F80833DC0803B39F0E0F4803A1B
:100CE00009F479C0883A09F09CCF84E08093F2013E
:100CF0001092AA011092A901E0911C02F0911D022C
:100D000009958091A90181110FC081E08093A9010B
:100D10001092890109C0803C09F4A6CF883C09F4EF
:100D2000A3CF883B09F07DCFE091AA0181E08E0F2F
:100D30008093AA01F0E0E757FE4F80818093BB00CB
:100D40009091AA018091A90129C08091CD01809341
:100D5000BB0085EC8093BC0064CF9091EF01809143
:100D6000EE01981758F5E091EF0181E08E0F809326
:100D7000EF01F0E0E253FE4F8081E9CFE091EF0117
:100D800081E08E0F8093EF018091BB00F0E0E25391
:100D9000FE4F80839091EF018091EE019817C8F289
:100DA00085E8D8CFE091EF0181E08E0F8093EF01CD
:100DB0008091BB00F0E0E253FE4F80838091F1010F
:100DC00081115CCF81E08093CC0184EA8093BC00E8
:100DD0001092F20126CF85EC8093BC001092F201B4
:100DE0008091CB01803230F4E091CB01F0E0E55509
:100DF000FE4F10826091CB0170E0E0911A02F091F9
:100E00001B028BEA91E009951092CB010ACF109258
:100E1000F00134CFE5E3F2E01382128288EE93E032
:100E2000A0E0B0E084839583A683B78322E131E01C
:100E30003183208325EC30E03587248724EC30E0B3
:100E40003787268720EC30E0318B208B21EC30E097
:100E5000338B228B22EC30E0358B248B26EC30E078
:100E6000378B268B118E128E138E148EE2EDF2E0EC
:100E70001382128284839583A683B78384E291E0F0
:100E800091838083EEEDF2E01382128286E391E09B
:100E900091838083118687E2848380E1828782E068
:100EA000838714860895CF93DF93CDB7DEB7A197DC
:100EB0000FB6F894DEBF0FBECDBF789484B58260C4
:100EC00084BD84B5816084BD85B5826085BD85B5EE
:100ED000816085BD80916E00816080936E0010926C
:100EE00081008091810082608093810080918100E7
:100EF0008160809381008091800081608093800078
:100F00008091B10084608093B1008091B0008160D5
:100F10008093B00080917A00846080937A00809101
:100F20007A00826080937A0080917A008160809359
:100F30007A0080917A00806880937A001092C100D4
:100F400083E00E94870084E00E94870060E083E0E5
:100F50000E94A60060E084E00E94A6001092210298
:100F60001092200210921F0210921E020E94800214
:100F700089E491E090931D0280931C028AE491E041
:100F800090931B0280931A021092E3028091E9026F
:100F9000823018F098E09093E3028093E60262E3D7
:100FA00070E080E090E00E9417016091EA028EED0F
:100FB00092E00E94450368EE73E080E090E00E94BA
:100FC000170160E38EED92E00E943C040BE416E40E
:100FD000C8010197F1F760E38EED92E00E943C04B6
:100FE000C8010197F1F760E38EED92E00E943C04A6
:100FF00083E592E00197F1F760E28EED92E00E94C6
:101000003C046091E302606240E08EED92E00E9459
:10101000550484E08093E40240E06CE08EED92E0C1
:101020000E9455040E94B90412E01093E50240E0CA
:1010300066E08EED92E00E94550440E062E08EEDA5
:1010400092E00E9455048BE39FE10197F1F7109223
:10105000EA0260E08EED92E00E944503E0914502D5
:10106000F09146021083E0914102F0914202108219
:10107000E0914302F09144028FEC808310924D0284
:10108000E0914902F0914A0286E08083E0914702B4
:10109000F0914802808180618083E0914702F09165
:1010A0004802808188608083E0914702F091480285
:1010B000808180688083E0914702F09148028081BE
:1010C0008F7D80838AE0882E912CA12CB12C90E01A
:1010D000C92E90E0D92E7724739428E0622E20E464
:1010E00020937C0080917A00806480937A008091C4
:1010F0007A0086FDFCCFE0907800F09079008EE3D6
:1011000091E00E942F0417010F2C000C4408550891
:1011100057FEEBC06DE285E392E00E94EB012227CF
:101120003327A901221933094409550919A28E014F
:101130000F5D1F4FCA01B901A50194010E94CB099F
:10114000605DF80162938F0121153105410551055C
:1011500089F70115110519F0C8010E942F048DE4CB
:1011600091E00E942F048FB7F89420902D023090C8
:101170002E0240902F02509030028FBF80912B02A0
:1011800081114CC0F0E5EF16F1040CF047C07092ED
:101190002B0220922702309228024092290250927C
:1011A0002A026092EA0260E08EED92E00E9445031E
:1011B0000E94B9041A8219821C821B821E821D821F
:1011C00047E050E060E571E0CE0101960E94D20454
:1011D00070E060E0CE0101960E94A00489819A81AE
:1011E000009711F00E948F0A1A8219821C821B82BA
:1011F0001E821D824EE050E068E571E0CE0101964E
:101200000E94D20461E070E0CE0101960E94A00429
:1012100089819A81009711F00E948F0A80912B0298
:10122000882309F478C061E083E00E94A6008091E1
:10123000230290912402A0912502B0912602A201DE
:101240009101281B390B4A0B5B0BDA01C901843F62
:101250009140A105B10588F020922302309224022A
:1012600040922502509226026091220241E06427BA
:101270006093220284E00E94A60080912702909150
:101280002802A0912902B0912A02281A390A4A0A92
:101290005B0A58E8251653E135064104510498F0DD
:1012A00010922B0260E083E00E94A60060E084E0E0
:1012B0000E94A6000E94B9041092EA0260E08EED3E
:1012C00092E00E94450362E370E080E090E00E94BB
:1012D0001701C114D10409F402CF0E94B50188237B
:1012E00009F4FDCE0E940000FACEA201910119A2DC
:1012F0008E010F5D1F4FCA01B901A50194010E9423
:10130000CB09605DF80162938F012115310541051C
:10131000510589F71ECF60E083E00E94A60060E0DF
:1013200084E00E94A600CFCF2F923F924F925F920F
:101330006F927F928F929F92AF92BF92CF92DF92E5
:10134000EF92FF920F931F93CF93DF93CDB7DEB74A
:10135000CA1BDB0B0FB6F894DEBF0FBECDBF0994DE
:101360002A88398848885F846E847D848C849B8435
:10137000AA84B984C884DF80EE80FD800C811B8143
:10138000AA81B981CE0FD11D0FB6F894DEBF0FBE72
:10139000CDBFED010895A1E21A2EAA1BBB1BFD01D2
:1013A0000DC0AA1FBB1FEE1FFF1FA217B307E40744
:1013B000F50720F0A21BB30BE40BF50B661F771F9C
:1013C000881F991F1A9469F760957095809590957C
:1013D0009B01AC01BD01CF010895EE0FFF1F0590E9
:1013E000F491E02D09940F931F93CF93DF938230F4
:1013F000910510F482E090E0E091ED02F091EE02B0
:1014000030E020E0B0E0A0E0309799F421153105FC
:1014100009F44AC0281B390B24303105D8F58A81DC
:101420009B816115710589F1FB0193838283FE0124
:1014300011C0408151810281138148175907E0F0A2
:101440004817590799F4109761F012960C93129768
:1014500013961C933296CF01DF91CF911F910F917C
:1014600008950093ED021093EE02F4CF211531059B
:1014700051F04217530738F0A901DB019A01BD0171
:10148000DF01F801C1CFEF01F9CF9093EE02809315
:10149000ED02CDCFFE01E20FF31F81939193225015
:1014A000310939832883D7CF2091EB023091EC02A8
:1014B000232B41F420910201309103013093EC027F
:1014C0002093EB022091000130910101211531059B
:1014D00041F42DB73EB74091040150910501241B02
:1014E000350BE091EB02F091EC02E217F307A0F468
:1014F0002E1B3F0B2817390778F0AC014E5F5F4F6A
:101500002417350748F04E0F5F1F5093EC024093AD
:10151000EB02819391939FCFF0E0E0E09CCFCF93DB
:10152000DF930097E9F0FC01329713821282A091B9
:10153000ED02B091EE02ED0130E020E01097A1F451
:1015400020813181820F931F2091EB023091EC02B8
:101550002817390709F061C0F093EC02E093EB0221
:10156000DF91CF910895EA01CE17DF07E8F54A81B0
:101570005B819E0141155105B1F7E901FB83EA83C7
:1015800049915991C40FD51FEC17FD0761F4808173
:1015900091810296840F951FE90199838883828146
:1015A00093819B838A83F0E0E0E012968D919C9179
:1015B00013970097B9F52D913C911197CD010296A3
:1015C000820F931F2091EB023091EC02281739070C
:1015D00039F6309751F51092EE021092ED02B09369
:1015E000EC02A093EB02BCCFD383C2834081518134
:1015F000840F951FC817D90761F44E5F5F4F88812C
:101600009981480F591F518340838A819B8193831D
:1016100082832115310509F0B0CFF093EE02E093FB
:10162000ED029ECFFD01DC01C0CF13821282D7CF25
:10163000B0E0A0E0EEE1FBE00C9496098C0100978D
:1016400051F4CB010E94F3098C01C801CDB7DEB77C
:10165000E0E10C94B209FC01E60FF71F9C01225057
:101660003109E217F30708F49DC0D901CD91DC914F
:101670001197C617D70798F0C530D10530F3CE01C2
:1016800004978617970708F3C61BD70B2297C193B9
:10169000D1936D937C93CF010E948F0AD6CF5B01CB
:1016A000AC1ABD0A4C018C0E9D1EA091ED02B091AA
:1016B000EE02512C412CF12CE12C109731F5809148
:1016C000EB029091EC028815990509F05CC0461672
:1016D000570608F058C080910001909101010097D1
:1016E00041F48DB79EB74091040150910501841BD0
:1016F000950BE817F90708F055C0F093EC02E0935A
:10170000EB02F90171836083A0CF8D919C911197B9
:1017100012966C90129713967C901397A815B905A2
:1017200059F56C0142E0C40ED11CCA14DB0420F14F
:10173000AC014A195B09DA011296159780F06282B2
:10174000738251834083D9016D937C93E114F1043A
:1017500071F0D7011396FC93EE93129776CF2296F1
:101760008C0F9D1FF90191838083F301EFCFF093DC
:10177000EE02E093ED0269CF4816590608F42C01F9
:101780007D01D3019ACFCB010E94F3097C01009720
:1017900049F0AE01B8010E94D50BC8010E948F0A22
:1017A000870153CF10E000E050CFFB01DC0102C005
:1017B00001900D9241505040D8F70895FB01DC0193
:0E17C00001900D920020E1F70895F894FFCFFC
:1017CE000000EF02800000004000140054000000F2
:1017DE000000EB014B0178013802A90187019B0142
:1017EE00000000001603E9022C04BF02E202CF0241
:1017FE00C00200000000CC044B012C045802416EC4
:10180E00616C6F672056616C75653A20000D0A0099
:10181E005741524E494E4700466C616D65204465F6
:08182E00746563746564000039
:00000001FF
