:100000000C9462000C948A000C948A000C948A0070
:100010000C948A000C948A000C948A000C948A0038
:100020000C948A000C948A000C948A000C948A0028
:100030000C948A000C948A000C948A000C948A0018
:100040000C945B070C948A000C94CB070C94A507C6
:100050000C948A000C948A000C948A000C948A00F8
:100060000C94FD070C948A00000000002400270077
:100070002A0000000000250028002B0000000008D6
:10008000000201000003040700000000000000005F
:1000900000000000230026002900040404040404D6
:1000A0000404020202020202030303030303010227
:1000B00004081020408001020408102001020408F6
:1000C00010201C0911241FBECFEFD8E0DEBFCDBF2A
:1000D00011E0A0E0B1E0E4EEFBE102C005900D927A
:1000E000A037B107D9F722E0A0E7B1E001C01D9227
:1000F000AC3FB207E1F710E0C2E6D0E004C02197C0
:10010000FE010E94EA0DC136D107C9F70E94840999
:100110000C94F00D0C940000CF92DF92EF92FF92BE
:10012000CF93DF93B091E302A0E08111AB2F8091D8
:10013000E40290E0880F991FAC0140575F4FC090D8
:10014000E902D090EA02E090EB02F090EC0230E09D
:1001500020E0FA01C591D491E881B90190E080E0F6
:10016000EB23EA130AC02F5F3F4F6C157D058E0508
:100170009F0578F36FEF7FEFCB01DF91CF91FF9079
:10018000EF90DF90CF900895FC01538D448D252F83
:1001900030E0842F90E0821B930B541710F0CF9621
:1001A000089501970895FC01918D828D981761F053
:1001B000A28DAE0FBF2FB11D5D968C91928D9F5F6A
:1001C0009F73928F90E008958FEF9FEF0895FC0149
:1001D000918D828D981731F0828DE80FF11D858DFC
:1001E00090E008958FEF9FEF0895FC01918D228D8F
:1001F000892F90E0805C9F4F821B91098F73992714
:100200000895FC01A48DA80FB92FB11DA35ABF4FAB
:100210002C91848D90E001968F739927848FA68905
:10022000B7892C93A089B1898C91837080648C9359
:10023000938D848D981306C00288F389E02D808108
:100240008F7D80830895EF92FF920F931F93CF933A
:10025000DF93EC0181E0888F9B8D8C8D98131AC001
:10026000E889F989808185FF15C09FB7F894EE89E8
:10027000FF896083E889F989808183708064808345
:100280009FBF81E090E0DF91CF911F910F91FF9090
:10029000EF900895F62E0B8D10E00F5F1F4F0F7338
:1002A0001127E02E8C8D8E110CC00FB607FCFACFF3
:1002B000E889F989808185FFF5CFCE010E9401018F
:1002C000F1CFEB8DEC0FFD2FF11DE35AFF4FF082C4
:1002D0009FB7F8940B8FEA89FB8980818062CFCF2A
:1002E000CF93DF93EC01888D8823B9F0AA89BB896D
:1002F000E889F9898C9185FD03C0808186FD0DC058
:100300000FB607FCF7CF8C9185FFF2CF808185FF78
:10031000EDCFCE010E940101E9CFDF91CF91089589
:1003200083E392E00E94F50021E0892B09F420E0AC
:10033000822F089580E090E0892B29F00E9490019F
:1003400081110C940000089590E0FC01E458FF4FE7
:100350002491FC01E255FF4F3491FC01E656FF4F1A
:10036000E491EE23C9F0222339F0233001F1A8F4FF
:10037000213019F1223029F1F0E0EE0FFF1FEE5885
:10038000FF4FA591B4918FB7F894EC91611126C0FD
:1003900030953E233C938FBF08952730A9F0283035
:1003A000C9F0243049F7809180008F7D03C080918F
:1003B00080008F7780938000DFCF84B58F7784BDF6
:1003C000DBCF84B58F7DFBCF8091B0008F7780939A
:1003D000B000D2CF8091B0008F7DF9CF3E2BDACF25
:1003E000CF93DF9390E0FC01E255FF4F24918656B6
:1003F0009F4FFC0184918823D1F090E0880F991FD2
:10040000FC01E859FF4FA591B491FC01EE58FF4F54
:10041000C591D491623071F49FB7F8943C91822FCA
:10042000809583238C93E8812E2B28839FBFDF91B7
:10043000CF9108958FB7F894EC912E2B2C938FBF0A
:10044000F6CF3FB7F89480912B0290912C02A091A7
:100450002D02B0912E0226B5A89B05C02F3F19F0A2
:100460000196A11DB11D3FBFBA2FA92F982F882734
:10047000BC01CD01620F711D811D911D42E0660F0F
:10048000771F881F991F4A95D1F708958F929F92E1
:10049000AF92BF92CF92DF92EF92FF924B015C013D
:1004A0000E9421026B017C010E9421026C197D09CE
:1004B0008E099F09683E734081059105A8F321E0EC
:1004C000821A9108A108B10888EEC80E83E0D81EF0
:1004D000E11CF11C81149104A104B10429F7FF90DF
:1004E000EF90DF90CF90BF90AF909F908F90089546
:1004F000CF92DF92EF92FF920F931F93CF93DF93F0
:10050000CDB7DEB7C054D1400FB6F894DEBF0FBEF2
:10051000CDBF2FB7F89480912F0290913002A09117
:100520003102B09132022FBF4091E5025091E602B4
:100530006091E7027091E8028C019D01041B150B8C
:10054000260B370BB901A801403D574061057105E5
:1005500090F48091ED02C05CDE4F0FB6F894DEBFE0
:100560000FBECDBFDF91CF911F910F91FF90EF9004
:10057000DF90CF9008958093E5029093E602A093D8
:10058000E702B093E8021092E0021092DF021092AC
:10059000DE021092DD021092DC0262E08091E10244
:1005A0000E94F00161E070E080E090E00E9446026D
:1005B00061E08091E1020E94F00160E08091E1023F
:1005C0000E94A4018091E2028551823020F58BE2E5
:1005D00091E10197F1F762E08091E1020E94F00160
:1005E0008091EE0290E08230910538F0880F991FDB
:1005F000880F991F05970197F1F7F89480E00E9402
:100600008C006F3F7F4F8F4F9F4F61F41092ED0230
:10061000789480E0A0CF64E170E080E090E00E94F8
:100620004602D9CF81E00E948C006F3F7F4F8F4FF1
:100630009F4F61F38E010F5F1F4F6E018FEBC81A42
:100640008EEFD80A780180E00E948C00F701608369
:1006500071838283938381E00E948C00F70164831D
:10066000758386839783F8E0EF0EF11CEC14FD048C
:1006700051F7789430E020E0F801C080D180E2802A
:10068000F3804481558166817781FFEFCF16DF06C5
:10069000EF06FF0631F04F3F8FEF580768077807E6
:1006A00019F41092ED02B5CFF90183E0F595E795C5
:1006B0008A95E1F7E452FD4F8081880FC416D50674
:1006C000E606F70610F180832F5F3F4F085F1F4F4C
:1006D0002832310589F64091E0022091DC028091B8
:1006E000DD02280F3327331F8091DE02280F311DD2
:1006F0008091DF02820F932F911D992748171906C9
:1007000081F681E08093ED0226CF8160DCCF0895F1
:100710000895AF92BF92CF92DF92EF92FF920F9324
:100720001F93CF93DF936C017B018B01040F151F87
:10073000EB015E01AE18BF08C017D10759F06991EF
:10074000D601ED91FC910190F081E02DC601099553
:10075000892B79F7C501DF91CF911F910F91FF9000
:10076000EF90DF90CF90BF90AF90089508952091C3
:10077000B101260F3327331F21323105ECF42091CC
:10078000FA01FC0190E080E0243069F082E00895F5
:10079000A091B1012191AC014F565E4FA40FB52F2E
:1007A000B11D2C930196861798F38091B101680FC3
:1007B0006093B10180E0089581E008951092FA01FC
:1007C00081E08093F9011092D40161E082E10E94FE
:1007D000A40161E083E10E94A401E9EBF0E08081E3
:1007E0008E7F808380818D7F808388E48093B800B2
:1007F00085E48093BC000895CF93DF9391E09093BC
:1008000090018823B9F0C091B800D091BA008091CE
:10081000BC008A7B8093BC0060E082E10E94A4015E
:1008200060E083E10E94A4010E94DE03D093BA003D
:10083000C093B800DF91CF9108950895E091290207
:1008400080912802E81730F4F0E0E059FE4F8081F3
:1008500090E008958FEF9FEF089590912902809185
:1008600028022FEF3FEF981748F4E92FF0E0E05906
:10087000FE4F208130E09F5F90932902C9010895C7
:100880008091280290912902891B990B0895CF929B
:10089000DF92EF92FF920F931F93CF93DF937C0130
:1008A000CB018A0120910002222389F0EB016B0128
:1008B000C40ED51ECC15DD0569F06991D701ED9107
:1008C000FC910190F081E02DC7010995F3CF642FD1
:1008D0000E94B703C801DF91CF911F910F91FF9044
:1008E000EF90DF90CF900895CF93DF931F92CDB715
:1008F000DEB76983209100022223F9F020912602BD
:10090000203258F021E030E0FC013383228390E074
:1009100080E00F90DF91CF91089580912702E82F1A
:10092000F0E0EF5FFD4F998190838F5F8093270206
:100930008093260281E090E0ECCF61E0CE01019649
:100940000E94B703F7CFCF92DF92EF92FF920F93FF
:100950001F93CF93DF93FC01C48121E02093000219
:10096000C093210210922702109226028485682BE0
:1009700080ED92E00E947404D0912602D13208F0FA
:1009800092C00E9421026B017C018091FA018111C9
:1009900065C082E08093FA0181E08093F9018FEFD6
:1009A0008093F8011092F701D093F601A1E0B2E034
:1009B000E6EDF1E080E0D81385C01092D50180917A
:1009C000D501CC0FC82BC093D5018091D4018130C3
:1009D00009F07CC01092D4010E9421026B017C01BD
:1009E0008091D5018093BB008091FC019091FD0125
:1009F000A091FE01B091FF01892B8A2B8B2B99F0DE
:100A00000E9421020091FC011091FD012091FE0144
:100A10003091FF016C197D098E099F090617170790
:100A200028073907E0F18091BC0083FDD9CF85EC20
:100A30008093BC000E9421026B017C018091FA012D
:100A4000823009F445C08091F8018F3F61F18091B7
:100A5000F801803241F18091F80125C08091FC01BC
:100A60009091FD01A091FE01B091FF01892B8A2B8D
:100A70008B2B09F48ACF0E9421020091FC01109176
:100A8000FD012091FE013091FF016C197D098E0955
:100A90009F09061717072807390708F076CF8091B6
:100AA000FB010E94FC031092270210922602109272
:100AB0000002DF91CF911F910F91FF90EF90DF9097
:100AC000CF9008959D9191938F5F75CF85EEB0CFB4
:100AD0008091FC019091FD01A091FE01B091FF0178
:100AE000892B8A2B8B2B09F4A9CF0E94210200911C
:100AF000FC011091FD012091FE013091FF016C1964
:100B00007D098E099F09061717072807390708F07E
:100B100095CFC5CF90E080E00895FC0101900020C2
:100B2000E9F73197AF01481B590BBC018FEE92E0FA
:100B30000C9489038F929F92AF92BF920F931F9351
:100B4000CF93DF93CDB7DEB7A1970FB6F894DEBF92
:100B50000FBECDBF19A2423008F44AE08E010F5DEE
:100B60001F4F842E912CB12CA12CA50194010E9421
:100B7000C80DE62FB901CA01EA30F4F4E05DD801EE
:100B8000EE938D01232B242B252B79F790E080E029
:100B9000109719F0CD010E948D05A1960FB6F8941B
:100BA000DEBF0FBECDBFDF91CF911F910F91BF90E0
:100BB000AF909F908F900895E95CE1CF0F931F93C2
:100BC000CF938C01C62F0E94A3046C2F6460C801D0
:100BD0000E94A3046C2F6B7FC8010E94A30483ECC6
:100BE00090E00197F1F7CF911F910F9108950F9326
:100BF0001F93CF93DF938C01D62FC42F607F642B7C
:100C00000E94DE0580E1D89FB00111246C2BC80141
:100C1000DF91CF911F910F910C94DE05CF93DF935D
:100C2000CDB7DEB728970FB6F894DEBF0FBECDBFA5
:100C300098E0E0E0F1E0DE01119601900D929A95C6
:100C4000E1F79091F702981708F48FEF90E0880F82
:100C5000991F21E030E02C0F3D1F820F931FFC01F4
:100C60006081606840E08FEE92E028960FB6F894BD
:100C7000DEBF0FBECDBFDF91CF910C94F70541E0F1
:100C80000E94F70581E090E008954F925F926F9285
:100C90007F928F929F92AF92BF92CF92DF92EF920C
:100CA000FF920F931F93CF936B017C01742EAC01C5
:100CB0009B010E94C30D882399F088E391E0CF91B6
:100CC0001F910F91FF90EF90DF90CF90BF90AF906A
:100CD0009F908F907F906F905F904F900C948D05B8
:100CE00046015701E894B7F82FEF3FEF4FE75FE772
:100CF000C501B4010E94C30D81110DC02FEF3FEF5C
:100D00004FE75FE7C501B4010E94F90B18161CF408
:100D10008CE391E0D4CF2FEF3FEF4FE75FE4C701C3
:100D2000B6010E94510D18161CF480E491E0C7CF63
:100D30002FEF3FEF4FE75FECC701B6010E94F90BC1
:100D400087FDF3CF20E030E0A901C701B6010E9482
:100D5000F90B10E000E087FF0CC041E06DE28FEE80
:100D600092E00E94F705F7FAF094F7F8F09401E0AA
:100D700010E0C0E060E070E080E09FE37C1641F0AE
:100D800020E030E040E251E40E94FE0BCF5FF6CF5E
:100D9000A70196010E948D0B4B015C010E94700C13
:100DA0002B013C014AE00E949A05080F191FCC2331
:100DB000C9F1C301B2010E949F0C9B01AC01C501A6
:100DC000B4010E948C0B4B015C0141E06EE28FEE9E
:100DD00092E00E94F7050F5F1F4FC15018F120E00D
:100DE00030E040E251E4C501B4010E94560D2B01F0
:100DF0003C010E94700C4B01B12CA12C4AE0C501B2
:100E0000B4010E949A05080F191FC501B4010E9480
:100E10009F0C9B01AC01C301B2010E948C0B4B01E2
:100E20005C01DBCFC801CF911F910F91FF90EF9034
:100E3000DF90CF90BF90AF909F908F907F906F90FA
:100E40005F904F90089585ED8093BC008091FC01E8
:100E50009091FD01A091FE01B091FF010796A11DA7
:100E6000B11D23E0B695A795979587952A95D1F75B
:100E70002091BC0024FD03C01092FA010895409116
:100E8000FC015091FD016091FE017091FF01452B25
:100E9000462B472B69F30097A105B10541F02AE2E3
:100EA0002A95F1F700C00197A109B109E1CF80911E
:100EB000FB010C94FC031F920F920FB60F921124AA
:100EC0002F933F938F939F93AF93BF9380912F0264
:100ED00090913002A0913102B091320230912A02F9
:100EE00023E0230F2D3758F50196A11DB11D209346
:100EF0002A0280932F0290933002A0933102B09384
:100F0000320280912B0290912C02A0912D02B0917F
:100F10002E020196A11DB11D80932B0290932C02ED
:100F2000A0932D02B0932E02BF91AF919F918F910C
:100F30003F912F910F900FBE0F901F90189526E8AC
:100F4000230F0296A11DB11DD2CF1F920F920FB693
:100F50000F9211242F933F934F935F936F937F933F
:100F60008F939F93AF93BF93EF93FF9383E392E0AD
:100F70000E940101FF91EF91BF91AF919F918F91DD
:100F80007F916F915F914F913F912F910F900FBE85
:100F90000F901F9018951F920F920FB60F92112469
:100FA0002F938F939F93EF93FF93E0914302F091E0
:100FB00044028081E0914902F0914A0282FD1BC007
:100FC000908180914C028F5F8F7320914D02821728
:100FD00041F0E0914C02F0E0ED5CFD4F958F809385
:100FE0004C02FF91EF919F918F912F910F900FBE27
:100FF0000F901F9018958081F4CF1F920F920FB61B
:101000000F9211242F933F934F935F936F937F938E
:101010008F939F93AF93BF93EF93FF938091B9000A
:10102000887F803609F44AC0F0F5883209F4A7C0F9
:1010300018F5803109F49BC0B8F4882309F4F9C08D
:10104000883009F494C0FF91EF91BF91AF919F91C7
:101050008F917F916F915F914F913F912F910F9061
:101060000FBE0F901F901895883109F488C0803208
:1010700051F78093F80114C0803409F49DC040F406
:101080008033B9F38833F9F68093F80185ECB0C06A
:10109000803509F485C0883509F496C0883499F6FE
:1010A0000E942307D0CF883909F48CC038F58837DF
:1010B00029F050F4883611F0803729F683E08093C8
:1010C000FA011092D30157C0883809F47BC08039E7
:1010D00019F0803809F0B7CF8091D301803208F041
:1010E00071C0E091D30181E08E0F8093D301809194
:1010F000BB00F0E0ED54FE4F80833DC0803B39F0F3
:10110000E0F4803A09F479C0883A09F09CCF84E091
:101110008093FA011092B2011092B101E091240281
:10112000F091250209958091B10181110FC081E0F4
:101130008093B1011092910109C0803C09F4A6CFBF
:10114000883C09F4A3CF883B09F07DCFE091B20140
:1011500081E08E0F8093B201F0E0EF56FE4F808168
:101160008093BB009091B2018091B10129C0809120
:10117000D5018093BB0085EC8093BC0064CF909137
:10118000F7018091F601981758F5E091F70181E099
:101190008E0F8093F701F0E0EA52FE4F8081E9CF95
:1011A000E091F70181E08E0F8093F7018091BB0001
:1011B000F0E0EA52FE4F80839091F7018091F601B2
:1011C0009817C8F285E8D8CFE091F70181E08E0F3B
:1011D0008093F7018091BB00F0E0EA52FE4F8083DC
:1011E0008091F90181115CCF81E08093D40184EA80
:1011F0008093BC001092FA0126CF85EC8093BC004E
:101200001092FA018091D301803230F4E091D30141
:10121000F0E0ED54FE4F10826091D30170E0E09158
:101220002202F091230283EB91E009951092D30101
:101230000ACF1092F80134CFE3E3F2E01382128276
:1012400088EE93E0A0E0B0E084839583A683B78323
:101250002CE031E03183208325EC30E03587248792
:1012600024EC30E03787268720EC30E0318B208B70
:1012700021EC30E0338B228B22EC30E0358B248B59
:1012800026EC30E0378B268B118E128E138E148E47
:10129000E0EDF2E01382128284839583A683B78304
:1012A0008EE191E091838083EFEEF2E0138212826F
:1012B00080E391E091838083118687E2848380E1DB
:1012C000828782E083871486ACEDB2E015968C931A
:1012D00015978BE016968C931697E0EBF0E0E4916F
:1012E0001796EC931797ECE9F0E0E4911896EC93DD
:1012F000189740E85EE360E070E01D964D935D93C3
:101300006D937C9350970895789484B5826084BDE2
:1013100084B5816084BD85B5826085BD85B58160F9
:1013200085BD80916E00816080936E001092810077
:101330008091810082608093810080918100816032
:1013400080938100809180008160809380008091F3
:10135000B10084608093B1008091B000816080937F
:10136000B00080917A00846080937A0080917A0046
:10137000826080937A0080917A00816080937A0005
:1013800080917A00806880937A001092C100109258
:1013900029021092280210922702109226020E941F
:1013A000DE0387E893E0909325028093240288E887
:1013B00093E090932302809322021092F402809192
:1013C000FA02823018F098E09093F4028093F702CA
:1013D00062E370E080E090E00E9446026091FB02D0
:1013E0008FEE92E00E94A30468EE73E080E090E04C
:1013F0000E94460260E38FEE92E00E94DE05CBE49D
:10140000D6E4CE010197F1F760E38FEE92E00E94FF
:10141000DE052197F1F760E38FEE92E00E94DE0592
:1014200083E592E00197F1F760E28FEE92E00E948F
:10143000DE056091F402606240E08FEE92E00E946F
:10144000F70584E08093F50240E06CE08FEE92E0D7
:101450000E94F70540E061E08FEE92E00E94F70500
:101460008BE39FE10197F1F78091F802882319F04F
:1014700080E00E940E0682E08093F60240E066E083
:101480008FEE92E00E94F70540E062E08FEE92E07E
:101490000E94F7058BE39FE10197F1F788E08093C5
:1014A000FB0260E08FEE92E00E94A30462E0809174
:1014B000E1020E94F0012FB7F89480912F029091E1
:1014C0003002A0913102B09132022FBF805D97406F
:1014D000A109B1098093E5029093E602A093E70287
:1014E000B093E80287E38093EE02C0E0D0E00E9470
:1014F0007802882341F08091E2028C3009F463C0C5
:1015000048F48B3001F1C12CD12C90ECE92E9FE7EF
:10151000F92E43C085518230B0F71091DE02612F61
:1015200070E0762F662766277F778091DF02682B31
:1015300090E080E00E949F0C2DEC3CEC4CEC5DE3D5
:101540000E94560D5CC06091DE0270E090E080E089
:101550000E949F0C6B017C011091DF0217FF0AC0F3
:10156000AC019B0160E070E080E89FEB0E948C0B77
:101570006B017C011F70612F70E090E080E00E94A1
:10158000A10C2DEC3CEC4CEC5DE30E94560DA70148
:1015900096010E948D0B6B017C010E9478028823CA
:1015A00009F464C08091E2028B3030F08D3080F11C
:1015B0008551823008F479C0812C912C80ECA82EC2
:1015C0008FE7B82E43C01091DE02612F70E090E0EB
:1015D00080E00E949F0C6B017C016091DF026F70C4
:1015E00070E090E080E00E94A10C2DEC3CEC4CEC13
:1015F0005DE30E94560DA70196010E948D0B6B01C1
:101600007C0117FFCACFF7FAF094F7F8F094C5CF32
:101610006091DD0270E090E080E00E94A10C2DEC72
:101620003CEC4CEC5DE30E94560D4B015C0160917B
:10163000DC0270E090E080E00E94A10C9B01AC0114
:10164000C501B4010E948D0B4B015C01A7019601FD
:10165000C701B6010E94C30D811108C0A501940104
:10166000C501B4010E94C30D882389F180E00E9466
:101670000E0684E491E00E948D0581E00E940E0632
:1016800082E591E00E948D0560ED77E080E090E0DA
:101690000E944602209709F42ACF0E9490018823D5
:1016A00009F425CF0E94000022CF6091DC027091E6
:1016B000DD0276276727762790E080E00E949F0C66
:1016C0002DEC3CEC4CEC5DE30E94560DBDCF80E070
:1016D0000E940E068FE591E00E948D0542E0C70151
:1016E000B6010E94450641E06FED8FEE92E00E9448
:1016F000F70586E691E00E948D0581E00E940E06C6
:1017000088E691E00E948D0542E0C501B4010E9487
:1017100045068EE691E0B6CF5058BB27AA270E9417
:10172000A40B0C94170D0E94090D38F00E94100DA7
:1017300020F039F49F3F19F426F40C94060D0EF4B2
:10174000E095E7FB0C94000DE92F0E94280D58F35B
:10175000BA17620773078407950720F079F4A6F596
:101760000C944A0D0EF4E0950B2EBA2FA02D0B0110
:10177000B90190010C01CA01A0011124FF27591BD6
:1017800099F0593F50F4503E68F11A16F040A22FDC
:10179000232F342F4427585FF3CF4695379527954D
:1017A000A795F0405395C9F77EF41F16BA0B620B4C
:1017B000730B840BBAF09150A1F0FF0FBB1F661F93
:1017C000771F881FC2F70EC0BA0F621F731F841FD6
:1017D00048F4879577956795B795F7959E3F08F0FC
:1017E000B0CF9395880F08F09927EE0F97958795BE
:1017F00008950E94DC0C08F481E008950E94120C08
:101800000C94170D0E94100D58F00E94090D40F025
:1018100029F45F3F29F00C94000D51110C944B0DED
:101820000C94060D0E94280D68F39923B1F35523FB
:1018300091F3951B550BBB27AA27621773078407E3
:1018400038F09F5F5F4F220F331F441FAA1FA9F379
:1018500035D00E2E3AF0E0E832D091505040E69567
:10186000001CCAF72BD0FE2F29D0660F771F881FC8
:10187000BB1F261737074807AB07B0E809F0BB0BBB
:10188000802DBF01FF2793585F4F3AF09E3F5105CF
:1018900078F00C94000D0C944B0D5F3FE4F3983EF0
:1018A000D4F3869577956795B795F7959F5FC9F7B8
:1018B000880F911D9695879597F90895E1E0660F39
:1018C000771F881FBB1F621773078407BA0720F0B2
:1018D000621B730B840BBA0BEE1F88F7E09508951B
:1018E0000E94300D88F09F5798F0B92F9927B75173
:1018F000B0F0E1F0660F771F881F991F1AF0BA95B4
:10190000C9F714C0B13091F00E944A0DB1E00895BA
:101910000C944A0D672F782F8827B85F39F0B93FAC
:10192000CCF3869577956795B395D9F73EF4909566
:101930008095709561957F4F8F4F9F4F0895E894E4
:1019400009C097FB3EF490958095709561957F4F07
:101950008F4F9F4F9923A9F0F92F96E9BB279395B5
:10196000F695879577956795B795F111F8CFFAF4C5
:10197000BB0F11F460FF1BC06F5F7F4F8F4F9F4FF6
:1019800016C0882311F096E911C0772321F09EE854
:10199000872F762F05C0662371F096E8862F70E0BA
:1019A00060E02AF09A95660F771F881FDAF7880F94
:1019B0009695879597F90895990F0008550FAA0BEA
:1019C000E0E8FEEF16161706E807F907C0F0121652
:1019D0001306E407F50798F0621B730B840B950B55
:1019E00039F40A2661F0232B242B252B21F40895AA
:1019F0000A2609F4A140A6958FEF811D811D089547
:101A000097F99F6780E870E060E008959FEF80ECB1
:101A1000089500240A941616170618060906089554
:101A200000240A9412161306140605060895092EBA
:101A30000394000C11F4882352F0BB0F40F4BF2B29
:101A400011F460FF04C06F5F7F4F8F4F9F4F089569
:101A500057FD9058440F551F59F05F3F71F047955F
:101A6000880F97FB991F61F09F3F79F08795089544
:101A7000121613061406551FF2CF4695F1DF08C063
:101A8000161617061806991FF1CF86957105610580
:101A900008940895E894BB2766277727CB0197F928
:101AA00008950E94DC0C08F48FEF08950E94690DE0
:101AB0000C94170D0E94090D38F00E94100D20F0B3
:101AC000952311F00C94000D0C94060D11240C9428
:101AD0004B0D0E94280D70F3959FC1F3950F50E0B8
:101AE000551F629FF001729FBB27F00DB11D639FD0
:101AF000AA27F00DB11DAA1F649F6627B00DA11D76
:101B0000661F829F2227B00DA11D621F739FB00D1B
:101B1000A11D621F839FA00D611D221F749F33278B
:101B2000A00D611D231F849F600D211D822F762F24
:101B30006A2F11249F5750409AF0F1F088234AF001
:101B4000EE0FFF1FBB1F661F771F881F915050406D
:101B5000A9F79E3F510580F00C94000D0C944B0D9D
:101B60005F3FE4F3983ED4F3869577956795B795F4
:101B7000F795E7959F5FC1F7FE2B880F911D96950E
:101B8000879597F908950E94DC0C880B990B0895AE
:101B9000A1E21A2EAA1BBB1BFD010DC0AA1FBB1F71
:101BA000EE1FFF1FA217B307E407F50720F0A21BE3
:101BB000B30BE40BF50B661F771F881F991F1A9450
:101BC00069F760957095809590959B01AC01BD017A
:101BD000CF010895EE0FFF1F0590F491E02D0994B9
:041BE000F894FFCFA7
:101BE4000000400014005400000000002301890399
:101BF400C4007001F500D300E70000000000740485
:101C040047048A051D0440042D041E04000000003E
:101C14003F0689038A05B6036E616E00696E66002D
:101C24006F7666004572726F722072656164696EC8
:101C3400670066726F6D2073656E736F7221005456
:101C4400656D703A2000430048756D3A2000250008
:00000001FF
